:02000000E829ED
:06000600000000000800EC
:0E000C00213083120313FD00FD0B0A280800AB
:10001A000F3083120313FC004730FD00FD0B132839
:0A002A00FC0B132800000000080082
:1000340083120313F801F9011030FC00710DF80D5F
:10004400F90D7408F8027508031C750FF9020318FA
:1000540032287408F80775080318750FF907031098
:0A006400F00DF10DFC0B2028080040
:10006E0083160313D21B3E28831286114028831257
:10007E0086158316521B46288312061148288312B2
:10008E0006158316D21A4E28831286105028831214
:10009E0086148316521A5628831206105828831275
:1000AE0006146C185C2806165D28061286160320A8
:1000BE0086128316D2196628831286116828831237
:1000CE008615831652196E28831206117028831214
:1000DE0006158316D2187628831286107828831276
:1000EE008614831652187E288312061080288312D7
:1000FE0006146C1884280616852806128616032008
:0E010E0086126C1C8C280D208D2806200800FF
:10011C00831203136C1083164D08D20037206C1415
:02012C000800C9
:0E012E00831203136B088A006A08820008001F
:10013C0083160313D001053050020318AC28500865
:10014C004F07840020308000D00AA12850084F07A8
:10015C0084008001D00350084F07D1000A30F4000E
:10016C00F5014D08F0004E08F1001A207808F00057
:10017C007908F1003030F0078316510884007008BC
:10018C0080000A30F400F5014D08F0004E08F10033
:10019C001A2070088316CD007108CE00003071064D
:1001AC00031DDA2800307006031DDD28DF28D0037C
:0401BC00B12808005E
:1001C00083160313C901CA014408CB004508CC00BB
:1001D00080304506F00080307002031DF1280030A9
:1001E00044020318FF280130C9000030CA00440847
:1001F000003CCB004508031C013ECC01CC024B085F
:10020000CD004C08CE004608CF009E200630C70027
:100210000030C8004808003C031D10294708003C76
:1002200003182B2947084607F20001304702F00067
:100230000030031C013E4802F100700846078400AC
:100240000008F00072088400700880000130C702C6
:10025000031CC8030A29460884002030800049088E
:100260004A0403194929C701C80147084607840001
:100270000008203A031D4029C70A0319C80A352976
:100280000130C702031CC8034708460784002D300D
:0402900080000800E2
:100294005C29803083160313C4006F29C030C40066
:1002A4006F299430C4006F29D430C4006F29803082
:1002B400C4006F29831603134408013A03194B2918
:1002C4004408023A031950294408033A03195329EC
:1002D4004408043A0319562959294503F0004408EF
:1002E400F0077008C4007008D20037206C10EF01CA
:1002F4006F08831646078400000803198B298312AC
:100304006F088316460784000008CD008E20EF0A8C
:080314007A2983126C14080021
:10031C0097208A110A128000840AEA0A0319EB0A50
:08032C00F003031D8E290800F7
:100334008316031386120612061086100611861100
:1003440083128612061286110611861006100D20DD
:100354000D200D20861406148616032086120D2007
:100364008616032086120D208616032086120D2081
:1003740006108616032086120D2086160320861288
:10038400861086158616032086120D208611061403
:1003940086160320861206108616032086120D2068
:1003A40086160320861206148616032086120D2054
:1003B4000610861603208612861506158614061462
:0C03C4008616032086120D206C14080021
:1003D000522383120313ED01EE018316BC01BD010C
:1003E000BE01BF01C001C101C201C30101308800CB
:1003F0008312880183168701831287019A210130B5
:100400008316D20037200C308316D20037200130FB
:100410008316C4000130C5003530C6004A210230C1
:100420008316C4000130C5002630C6004A210808E2
:10043000003A031D1C2A172A0808203A031D252A02
:1004400001308316C2000030C3008316003043061B
:10045000031D2C2A01304206031D012B0130D2005E
:10046000372001308316C4000130C5005930C60062
:100470004A2102308316C4000130C5004930C6004D
:100480004A210808003A031D462A412A0808013A71
:10049000031D502AED0A0319EE0A8316C201C30197
:1004A00083120808023A031D5B2A8316BC0A03194B
:1004B000BD0AC201C30183120808043A031D662A5B
:1004C0008316BE0A0319BF0AC201C30183120808BA
:1004D000083A031D712A8316C00A0319C10AC20112
:1004E000C30183120808103A031D002B0130831644
:1004F000D20037206D088316C40083126E0883165D
:10050000C500A730C600E0203C08C4003D08C50077
:10051000B530C600E0203E08C4003F08C500AE303C
:10052000C600E0204008C4004108C500A030C60055
:10053000E0200630FB001330FC00AD30FD00FD0B69
:100540009F2AFC0B9F2AFB0B9F2A00000000013012
:10055000C4000130C5004630C6004A210130831670
:10056000C4000430C500A730C6004A2102308316FB
:10057000C4000130C5004330C6004A210230831652
:10058000C4000430C500AE30C6004A211530FB005F
:100590004B30FC00BE30FD00FD0BCC2AFC0BCC2AFE
:1005A000FB0BCC2A000001308316C4000130C500CB
:1005B0002330C6004A2101308316C4000430C50030
:1005C000B530C6004A2102308316C4000130C50090
:1005D0002030C6004A2102308316C4000430C50012
:1005E000A030C6004A211530FB004B30FC00BE3065
:1005F000FD00FD0BF92AFC0BF92AFB0BF92A000080
:06060000252AFE29022B51
:1006A400203084004A3083120313F0000830EA003B
:0806B4000330EB008E21080069
:0606100034343A340034DA
:0606160032343A340034D6
:10061C006334613473347434203479346F34753406
:0E062C007234203476346F3474346534003404
:10063A0070347234653473347334203462347534EC
:0C064A00743474346F346E342034003487
:0606560033343A34003495
:06065C0031343A34003491
:1006620033343A344134693461346A3420343434B2
:100672003A34543461346E34623469346E34003442
:1006820031343A3441347334693466342034323488
:100692003A345A3461346B346134723469346134BB
:0206A200003422
:02400E004A2F37
:00000001FF
